{
  "_format": "hh-sol-artifact-1",
  "contractName": "Gourmet",
  "sourceName": "contracts/Gourmet.sol",
  "abi": [
    {
      "anonymous": false,
      "inputs": [
        {
          "indexed": false,
          "internalType": "uint256",
          "name": "result",
          "type": "uint256"
        }
      ],
      "name": "starLog",
      "type": "event"
    },
    {
      "inputs": [
        {
          "internalType": "uint256",
          "name": "_uStar",
          "type": "uint256"
        },
        {
          "internalType": "uint256",
          "name": "_shopId",
          "type": "uint256"
        }
      ],
      "name": "Evaluate",
      "outputs": [],
      "stateMutability": "nonpayable",
      "type": "function"
    }
  ],
  "bytecode": "0x608060405234801561001057600080fd5b506102b0806100206000396000f3fe608060405234801561001057600080fd5b506004361061002b5760003560e01c80634b1a66bb14610030575b600080fd5b61004a6004803603810190610045919061012b565b61004c565b005b6000806000808481526020019081526020016000205414156100705782905061009d565b60028360008085815260200190815260200160002054610090919061019a565b61009a919061021f565b90505b80600080848152602001908152602001600020819055507f3dc9977b6228f22c9ff04974daaa507a6164fb80a3bb86d89fd86f8db0b8aa57816040516100e3919061025f565b60405180910390a1505050565b600080fd5b6000819050919050565b610108816100f5565b811461011357600080fd5b50565b600081359050610125816100ff565b92915050565b60008060408385031215610142576101416100f0565b5b600061015085828601610116565b925050602061016185828601610116565b9150509250929050565b7f4e487b7100000000000000000000000000000000000000000000000000000000600052601160045260246000fd5b60006101a5826100f5565b91506101b0836100f5565b9250827fffffffffffffffffffffffffffffffffffffffffffffffffffffffffffffffff038211156101e5576101e461016b565b5b828201905092915050565b7f4e487b7100000000000000000000000000000000000000000000000000000000600052601260045260246000fd5b600061022a826100f5565b9150610235836100f5565b925082610245576102446101f0565b5b828204905092915050565b610259816100f5565b82525050565b60006020820190506102746000830184610250565b9291505056fea2646970667358221220cfc19b43cdaf1a7dcf5edf7c2892c0d3a3c393403544e3cfc4aeabd8166a235364736f6c63430008090033",
  "linkReferences": {},
  "deployedLinkReferences": {}
}