{
  "_format": "hh-sol-artifact-1",
  "contractName": "Gourmet",
  "sourceName": "contracts/Gourmet.sol",
  "abi": [
    {
      "anonymous": false,
      "inputs": [
        {
          "indexed": false,
          "internalType": "uint256",
          "name": "shopId",
          "type": "uint256"
        },
        {
          "indexed": false,
          "internalType": "uint256",
          "name": "result",
          "type": "uint256"
        }
      ],
      "name": "starLog",
      "type": "event"
    },
    {
      "inputs": [
        {
          "internalType": "uint256",
          "name": "_shopId",
          "type": "uint256"
        },
        {
          "internalType": "uint256",
          "name": "_uStar",
          "type": "uint256"
        }
      ],
      "name": "Evaluate",
      "outputs": [],
      "stateMutability": "nonpayable",
      "type": "function"
    }
  ],
  "bytecode": "0x608060405234801561001057600080fd5b506102c0806100206000396000f3fe608060405234801561001057600080fd5b506004361061002b5760003560e01c80634b1a66bb14610030575b600080fd5b61004a6004803603810190610045919061012d565b61004c565b005b6000806000808581526020019081526020016000205414156100705781905061009d565b60028260008086815260200190815260200160002054610090919061019c565b61009a9190610221565b90505b80600080858152602001908152602001600020819055507f0e741df6b0624c5c581e31faae13a05230f8c4ba18a8f82924adc7d80d80daac83826040516100e5929190610261565b60405180910390a1505050565b600080fd5b6000819050919050565b61010a816100f7565b811461011557600080fd5b50565b60008135905061012781610101565b92915050565b60008060408385031215610144576101436100f2565b5b600061015285828601610118565b925050602061016385828601610118565b9150509250929050565b7f4e487b7100000000000000000000000000000000000000000000000000000000600052601160045260246000fd5b60006101a7826100f7565b91506101b2836100f7565b9250827fffffffffffffffffffffffffffffffffffffffffffffffffffffffffffffffff038211156101e7576101e661016d565b5b828201905092915050565b7f4e487b7100000000000000000000000000000000000000000000000000000000600052601260045260246000fd5b600061022c826100f7565b9150610237836100f7565b925082610247576102466101f2565b5b828204905092915050565b61025b816100f7565b82525050565b60006040820190506102766000830185610252565b6102836020830184610252565b939250505056fea2646970667358221220b727c60a334c645496695f25162058de45614b4cc64ac33279b67ba185d7c4c164736f6c63430008090033",
  "linkReferences": {},
  "deployedLinkReferences": {}
}