{
  "_format": "hh-sol-artifact-1",
  "contractName": "Gourmet",
  "sourceName": "contracts/Gourmet.sol",
  "abi": [
    {
      "anonymous": false,
      "inputs": [
        {
          "indexed": false,
          "internalType": "string",
          "name": "name",
          "type": "string"
        },
        {
          "indexed": false,
          "internalType": "int256",
          "name": "latitude",
          "type": "int256"
        },
        {
          "indexed": false,
          "internalType": "int256",
          "name": "longitude",
          "type": "int256"
        },
        {
          "indexed": false,
          "internalType": "uint256",
          "name": "star",
          "type": "uint256"
        }
      ],
      "name": "NewMap",
      "type": "event"
    },
    {
      "inputs": [
        {
          "internalType": "string",
          "name": "_name",
          "type": "string"
        },
        {
          "internalType": "int256",
          "name": "_latitude",
          "type": "int256"
        },
        {
          "internalType": "int256",
          "name": "_longitude",
          "type": "int256"
        },
        {
          "internalType": "uint256",
          "name": "_star",
          "type": "uint256"
        }
      ],
      "name": "addMap",
      "outputs": [],
      "stateMutability": "nonpayable",
      "type": "function"
    },
    {
      "inputs": [
        {
          "internalType": "address",
          "name": "",
          "type": "address"
        }
      ],
      "name": "eval",
      "outputs": [
        {
          "internalType": "string",
          "name": "name",
          "type": "string"
        },
        {
          "internalType": "int256",
          "name": "latitude",
          "type": "int256"
        },
        {
          "internalType": "int256",
          "name": "longitude",
          "type": "int256"
        },
        {
          "internalType": "uint256",
          "name": "star",
          "type": "uint256"
        }
      ],
      "stateMutability": "view",
      "type": "function"
    }
  ],
  "bytecode": "0x608060405234801561001057600080fd5b506106af806100206000396000f3fe608060405234801561001057600080fd5b50600436106100365760003560e01c80630a5a38951461003b5780630f33cf641461006e575b600080fd5b61005560048036038101906100509190610305565b61008a565b60405161006594939291906103fd565b60405180910390f35b61008860048036038101906100839190610506565b610142565b005b60006020528060005260406000206000915090508060000180546100ad906105bd565b80601f01602080910402602001604051908101604052809291908181526020018280546100d9906105bd565b80156101265780601f106100fb57610100808354040283529160200191610126565b820191906000526020600020905b81548152906001019060200180831161010957829003601f168201915b5050505050908060010154908060020154908060030154905084565b60008060003373ffffffffffffffffffffffffffffffffffffffff1673ffffffffffffffffffffffffffffffffffffffff168152602001908152602001600020905085858260000191906101979291906101fa565b508381600101819055508281600201819055508181600301819055507f9cc4013dd8663d85addc9ae5e8c5bf1cf948d7682bac2ead77cf0af8979a9c1386868686866040516101ea95949392919061062b565b60405180910390a1505050505050565b828054610206906105bd565b90600052602060002090601f016020900481019282610228576000855561026f565b82601f1061024157803560ff191683800117855561026f565b8280016001018555821561026f579182015b8281111561026e578235825591602001919060010190610253565b5b50905061027c9190610280565b5090565b5b80821115610299576000816000905550600101610281565b5090565b600080fd5b600080fd5b600073ffffffffffffffffffffffffffffffffffffffff82169050919050565b60006102d2826102a7565b9050919050565b6102e2816102c7565b81146102ed57600080fd5b50565b6000813590506102ff816102d9565b92915050565b60006020828403121561031b5761031a61029d565b5b6000610329848285016102f0565b91505092915050565b600081519050919050565b600082825260208201905092915050565b60005b8381101561036c578082015181840152602081019050610351565b8381111561037b576000848401525b50505050565b6000601f19601f8301169050919050565b600061039d82610332565b6103a7818561033d565b93506103b781856020860161034e565b6103c081610381565b840191505092915050565b6000819050919050565b6103de816103cb565b82525050565b6000819050919050565b6103f7816103e4565b82525050565b600060808201905081810360008301526104178187610392565b905061042660208301866103d5565b61043360408301856103d5565b61044060608301846103ee565b95945050505050565b600080fd5b600080fd5b600080fd5b60008083601f84011261046e5761046d610449565b5b8235905067ffffffffffffffff81111561048b5761048a61044e565b5b6020830191508360018202830111156104a7576104a6610453565b5b9250929050565b6104b7816103cb565b81146104c257600080fd5b50565b6000813590506104d4816104ae565b92915050565b6104e3816103e4565b81146104ee57600080fd5b50565b600081359050610500816104da565b92915050565b6000806000806000608086880312156105225761052161029d565b5b600086013567ffffffffffffffff8111156105405761053f6102a2565b5b61054c88828901610458565b9550955050602061055f888289016104c5565b9350506040610570888289016104c5565b9250506060610581888289016104f1565b9150509295509295909350565b7f4e487b7100000000000000000000000000000000000000000000000000000000600052602260045260246000fd5b600060028204905060018216806105d557607f821691505b602082108114156105e9576105e861058e565b5b50919050565b82818337600083830152505050565b600061060a838561033d565b93506106178385846105ef565b61062083610381565b840190509392505050565b600060808201905081810360008301526106468187896105fe565b905061065560208301866103d5565b61066260408301856103d5565b61066f60608301846103ee565b969550505050505056fea2646970667358221220cd37fde9890f1911ce37eb34fc48889c061eb5a60e2cb656cda73b96a6733cec64736f6c63430008090033",
  "linkReferences": {},
  "deployedLinkReferences": {}
}